{
  "_format": "hh-sol-artifact-1",
  "contractName": "WavePortal",
  "sourceName": "contracts/WavePortal.sol",
  "abi": [
    {
      "inputs": [],
      "stateMutability": "nonpayable",
      "type": "constructor"
    },
    {
      "inputs": [],
      "name": "getTotalWaves",
      "outputs": [
        {
          "internalType": "uint256",
          "name": "",
          "type": "uint256"
        }
      ],
      "stateMutability": "view",
      "type": "function"
    },
    {
      "inputs": [
        {
          "internalType": "enum WavePortal.Reaction",
          "name": "_reaction",
          "type": "uint8"
        }
      ],
      "name": "wave",
      "outputs": [],
      "stateMutability": "nonpayable",
      "type": "function"
    },
    {
      "inputs": [
        {
          "internalType": "uint256",
          "name": "",
          "type": "uint256"
        }
      ],
      "name": "waveList",
      "outputs": [
        {
          "internalType": "enum WavePortal.Reaction",
          "name": "reaction",
          "type": "uint8"
        }
      ],
      "stateMutability": "view",
      "type": "function"
    }
  ],
  "bytecode": "0x608060405234801561001057600080fd5b506103e5806100206000396000f3fe608060405234801561001057600080fd5b50600436106100415760003560e01c806335266202146100465780638b9c3ecd146100625780639a2cdc0814610092575b600080fd5b610060600480360381019061005b9190610270565b6100b0565b005b61007c60048036038101906100779190610299565b6101b8565b60405161008991906102e0565b60405180910390f35b61009a6101ef565b6040516100a791906102fb565b60405180910390f35b6100b86101fb565b81816000019060028111156100f6577f4e487b7100000000000000000000000000000000000000000000000000000000600052602160045260246000fd5b90816002811115610130577f4e487b7100000000000000000000000000000000000000000000000000000000600052602160045260246000fd5b815250506000819080600181540180825580915050600190039060005260206000200160009091909190915060008201518160000160006101000a81548160ff021916908360028111156101ad577f4e487b7100000000000000000000000000000000000000000000000000000000600052602160045260246000fd5b021790555050505050565b600081815481106101c857600080fd5b906000526020600020016000915090508060000160009054906101000a900460ff16905081565b60008080549050905090565b604051806020016040528060006002811115610240577f4e487b7100000000000000000000000000000000000000000000000000000000600052602160045260246000fd5b81525090565b60008135905061025581610388565b92915050565b60008135905061026a81610398565b92915050565b60006020828403121561028257600080fd5b600061029084828501610246565b91505092915050565b6000602082840312156102ab57600080fd5b60006102b98482850161025b565b91505092915050565b6102cb81610333565b82525050565b6102da81610329565b82525050565b60006020820190506102f560008301846102c2565b92915050565b600060208201905061031060008301846102d1565b92915050565b600081905061032482610374565b919050565b6000819050919050565b600061033e82610316565b9050919050565b7f4e487b7100000000000000000000000000000000000000000000000000000000600052602160045260246000fd5b6003811061038557610384610345565b5b50565b6003811061039557600080fd5b50565b6103a181610329565b81146103ac57600080fd5b5056fea2646970667358221220f7f756c39a5e9d4af936b021f4a46d2bc46acf7931a3cdc1570bca8c2c7f27ee64736f6c63430008040033",
  "linkReferences": {},
  "deployedLinkReferences": {}
}