{
  "_format": "hh-sol-artifact-1",
  "contractName": "WavePortal",
  "sourceName": "contracts/WavePortal.sol",
  "abi": [
    {
      "anonymous": false,
      "inputs": [
        {
          "indexed": false,
          "internalType": "enum WavePortal.Reaction",
          "name": "reaction",
          "type": "uint8"
        },
        {
          "indexed": false,
          "internalType": "string",
          "name": "message",
          "type": "string"
        },
        {
          "indexed": true,
          "internalType": "address",
          "name": "from",
          "type": "address"
        },
        {
          "indexed": false,
          "internalType": "uint256",
          "name": "timestamp",
          "type": "uint256"
        }
      ],
      "name": "NewWave",
      "type": "event"
    },
    {
      "inputs": [],
      "name": "getAllWaves",
      "outputs": [
        {
          "components": [
            {
              "internalType": "enum WavePortal.Reaction",
              "name": "reaction",
              "type": "uint8"
            },
            {
              "internalType": "string",
              "name": "message",
              "type": "string"
            },
            {
              "internalType": "address",
              "name": "waver",
              "type": "address"
            },
            {
              "internalType": "uint256",
              "name": "timestamp",
              "type": "uint256"
            }
          ],
          "internalType": "struct WavePortal.Wave[]",
          "name": "",
          "type": "tuple[]"
        }
      ],
      "stateMutability": "view",
      "type": "function"
    },
    {
      "inputs": [],
      "name": "getTotalWaves",
      "outputs": [
        {
          "internalType": "uint256",
          "name": "",
          "type": "uint256"
        }
      ],
      "stateMutability": "view",
      "type": "function"
    },
    {
      "inputs": [
        {
          "internalType": "enum WavePortal.Reaction",
          "name": "_reaction",
          "type": "uint8"
        },
        {
          "internalType": "string",
          "name": "_message",
          "type": "string"
        }
      ],
      "name": "wave",
      "outputs": [],
      "stateMutability": "nonpayable",
      "type": "function"
    },
    {
      "inputs": [
        {
          "internalType": "uint256",
          "name": "",
          "type": "uint256"
        }
      ],
      "name": "waveList",
      "outputs": [
        {
          "internalType": "enum WavePortal.Reaction",
          "name": "reaction",
          "type": "uint8"
        },
        {
          "internalType": "string",
          "name": "message",
          "type": "string"
        },
        {
          "internalType": "address",
          "name": "waver",
          "type": "address"
        },
        {
          "internalType": "uint256",
          "name": "timestamp",
          "type": "uint256"
        }
      ],
      "stateMutability": "view",
      "type": "function"
    }
  ],
  "bytecode": "0x608060405234801561001057600080fd5b50610c6d806100206000396000f3fe608060405234801561001057600080fd5b506004361061004c5760003560e01c806348c29f14146100515780638b9c3ecd1461006d5780639a2cdc08146100a0578063bd43a908146100be575b600080fd5b61006b600480360381019061006691906106a0565b6100dc565b005b610087600480360381019061008291906106f4565b610292565b60405161009794939291906108f7565b60405180910390f35b6100a8610387565b6040516100b59190610981565b60405180910390f35b6100c6610393565b6040516100d391906108d5565b60405180910390f35b60006040518060800160405280846002811115610122577f4e487b7100000000000000000000000000000000000000000000000000000000600052602160045260246000fd5b81526020018381526020013373ffffffffffffffffffffffffffffffffffffffff16815260200142815250908060018154018082558091505060019003906000526020600020906004020160009091909190915060008201518160000160006101000a81548160ff021916908360028111156101c7577f4e487b7100000000000000000000000000000000000000000000000000000000600052602160045260246000fd5b021790555060208201518160010190805190602001906101e892919061056b565b5060408201518160020160006101000a81548173ffffffffffffffffffffffffffffffffffffffff021916908373ffffffffffffffffffffffffffffffffffffffff1602179055506060820151816003015550503373ffffffffffffffffffffffffffffffffffffffff167f2d6873fdbcd96c625e1fafa3267b0aab6e37f9be7d7a32baf9f6875c5e29844483834260405161028693929190610943565b60405180910390a25050565b600081815481106102a257600080fd5b90600052602060002090600402016000915090508060000160009054906101000a900460ff16908060010180546102d890610afb565b80601f016020809104026020016040519081016040528092919081815260200182805461030490610afb565b80156103515780601f1061032657610100808354040283529160200191610351565b820191906000526020600020905b81548152906001019060200180831161033457829003601f168201915b5050505050908060020160009054906101000a900473ffffffffffffffffffffffffffffffffffffffff16908060030154905084565b60008080549050905090565b60606000805480602002602001604051908101604052809291908181526020016000905b8282101561056257838290600052602060002090600402016040518060800160405290816000820160009054906101000a900460ff166002811115610425577f4e487b7100000000000000000000000000000000000000000000000000000000600052602160045260246000fd5b600281111561045d577f4e487b7100000000000000000000000000000000000000000000000000000000600052602160045260246000fd5b815260200160018201805461047190610afb565b80601f016020809104026020016040519081016040528092919081815260200182805461049d90610afb565b80156104ea5780601f106104bf576101008083540402835291602001916104ea565b820191906000526020600020905b8154815290600101906020018083116104cd57829003601f168201915b505050505081526020016002820160009054906101000a900473ffffffffffffffffffffffffffffffffffffffff1673ffffffffffffffffffffffffffffffffffffffff1673ffffffffffffffffffffffffffffffffffffffff168152602001600382015481525050815260200190600101906103b7565b50505050905090565b82805461057790610afb565b90600052602060002090601f01602090048101928261059957600085556105e0565b82601f106105b257805160ff19168380011785556105e0565b828001600101855582156105e0579182015b828111156105df5782518255916020019190600101906105c4565b5b5090506105ed91906105f1565b5090565b5b8082111561060a5760008160009055506001016105f2565b5090565b600061062161061c846109c1565b61099c565b90508281526020810184848401111561063957600080fd5b610644848285610ab9565b509392505050565b60008135905061065b81610c10565b92915050565b600082601f83011261067257600080fd5b813561068284826020860161060e565b91505092915050565b60008135905061069a81610c20565b92915050565b600080604083850312156106b357600080fd5b60006106c18582860161064c565b925050602083013567ffffffffffffffff8111156106de57600080fd5b6106ea85828601610661565b9150509250929050565b60006020828403121561070657600080fd5b60006107148482850161068b565b91505092915050565b60006107298383610854565b905092915050565b61073a81610a58565b82525050565b61074981610a58565b82525050565b600061075a82610a02565b6107648185610a25565b935083602082028501610776856109f2565b8060005b858110156107b25784840389528151610793858261071d565b945061079e83610a18565b925060208a0199505060018101905061077a565b50829750879550505050505092915050565b6107cd81610aa7565b82525050565b6107dc81610aa7565b82525050565b60006107ed82610a0d565b6107f78185610a36565b9350610807818560208601610ac8565b61081081610beb565b840191505092915050565b600061082682610a0d565b6108308185610a47565b9350610840818560208601610ac8565b61084981610beb565b840191505092915050565b600060808301600083015161086c60008601826107c4565b506020830151848203602086015261088482826107e2565b91505060408301516108996040860182610731565b5060608301516108ac60608601826108b7565b508091505092915050565b6108c081610a9d565b82525050565b6108cf81610a9d565b82525050565b600060208201905081810360008301526108ef818461074f565b905092915050565b600060808201905061090c60008301876107d3565b818103602083015261091e818661081b565b905061092d6040830185610740565b61093a60608301846108c6565b95945050505050565b600060608201905061095860008301866107d3565b818103602083015261096a818561081b565b905061097960408301846108c6565b949350505050565b600060208201905061099660008301846108c6565b92915050565b60006109a66109b7565b90506109b28282610b2d565b919050565b6000604051905090565b600067ffffffffffffffff8211156109dc576109db610bbc565b5b6109e582610beb565b9050602081019050919050565b6000819050602082019050919050565b600081519050919050565b600081519050919050565b6000602082019050919050565b600082825260208201905092915050565b600082825260208201905092915050565b600082825260208201905092915050565b6000610a6382610a7d565b9050919050565b6000819050610a7882610bfc565b919050565b600073ffffffffffffffffffffffffffffffffffffffff82169050919050565b6000819050919050565b6000610ab282610a6a565b9050919050565b82818337600083830152505050565b60005b83811015610ae6578082015181840152602081019050610acb565b83811115610af5576000848401525b50505050565b60006002820490506001821680610b1357607f821691505b60208210811415610b2757610b26610b8d565b5b50919050565b610b3682610beb565b810181811067ffffffffffffffff82111715610b5557610b54610bbc565b5b80604052505050565b7f4e487b7100000000000000000000000000000000000000000000000000000000600052602160045260246000fd5b7f4e487b7100000000000000000000000000000000000000000000000000000000600052602260045260246000fd5b7f4e487b7100000000000000000000000000000000000000000000000000000000600052604160045260246000fd5b6000601f19601f8301169050919050565b60038110610c0d57610c0c610b5e565b5b50565b60038110610c1d57600080fd5b50565b610c2981610a9d565b8114610c3457600080fd5b5056fea264697066735822122007932f8fd38d09500637380164b0545bba84bc9a2bb6f9e61ae5ac1c7d79918d64736f6c63430008040033",
  "linkReferences": {},
  "deployedLinkReferences": {}
}