{
  "_format": "hh-sol-artifact-1",
  "contractName": "WavePortal",
  "sourceName": "contracts/WavePortal.sol",
  "abi": [
    {
      "inputs": [],
      "stateMutability": "payable",
      "type": "constructor"
    },
    {
      "anonymous": false,
      "inputs": [
        {
          "indexed": false,
          "internalType": "enum WavePortal.Reaction",
          "name": "reaction",
          "type": "uint8"
        },
        {
          "indexed": false,
          "internalType": "string",
          "name": "message",
          "type": "string"
        },
        {
          "indexed": true,
          "internalType": "address",
          "name": "from",
          "type": "address"
        },
        {
          "indexed": false,
          "internalType": "uint256",
          "name": "timestamp",
          "type": "uint256"
        }
      ],
      "name": "NewWave",
      "type": "event"
    },
    {
      "inputs": [],
      "name": "getAllWaves",
      "outputs": [
        {
          "components": [
            {
              "internalType": "enum WavePortal.Reaction",
              "name": "reaction",
              "type": "uint8"
            },
            {
              "internalType": "string",
              "name": "message",
              "type": "string"
            },
            {
              "internalType": "address",
              "name": "waver",
              "type": "address"
            },
            {
              "internalType": "uint256",
              "name": "timestamp",
              "type": "uint256"
            }
          ],
          "internalType": "struct WavePortal.Wave[]",
          "name": "",
          "type": "tuple[]"
        }
      ],
      "stateMutability": "view",
      "type": "function"
    },
    {
      "inputs": [],
      "name": "getTotalWaves",
      "outputs": [
        {
          "internalType": "uint256",
          "name": "",
          "type": "uint256"
        }
      ],
      "stateMutability": "view",
      "type": "function"
    },
    {
      "inputs": [
        {
          "internalType": "enum WavePortal.Reaction",
          "name": "_reaction",
          "type": "uint8"
        },
        {
          "internalType": "string",
          "name": "_message",
          "type": "string"
        }
      ],
      "name": "wave",
      "outputs": [],
      "stateMutability": "nonpayable",
      "type": "function"
    },
    {
      "inputs": [
        {
          "internalType": "uint256",
          "name": "",
          "type": "uint256"
        }
      ],
      "name": "waveList",
      "outputs": [
        {
          "internalType": "enum WavePortal.Reaction",
          "name": "reaction",
          "type": "uint8"
        },
        {
          "internalType": "string",
          "name": "message",
          "type": "string"
        },
        {
          "internalType": "address",
          "name": "waver",
          "type": "address"
        },
        {
          "internalType": "uint256",
          "name": "timestamp",
          "type": "uint256"
        }
      ],
      "stateMutability": "view",
      "type": "function"
    }
  ],
  "bytecode": "0x6080604052610f5a806100136000396000f3fe608060405234801561001057600080fd5b506004361061004c5760003560e01c806348c29f14146100515780638b9c3ecd1461006d5780639a2cdc08146100a0578063bd43a908146100be575b600080fd5b61006b60048036038101906100669190610823565b6100dc565b005b61008760048036038101906100829190610877565b610415565b6040516100979493929190610af8565b60405180910390f35b6100a861050a565b6040516100b59190610bc2565b60405180910390f35b6100c6610516565b6040516100d39190610ad6565b60405180910390f35b60006040518060800160405280846002811115610122577f4e487b7100000000000000000000000000000000000000000000000000000000600052602160045260246000fd5b81526020018381526020013373ffffffffffffffffffffffffffffffffffffffff16815260200142815250908060018154018082558091505060019003906000526020600020906004020160009091909190915060008201518160000160006101000a81548160ff021916908360028111156101c7577f4e487b7100000000000000000000000000000000000000000000000000000000600052602160045260246000fd5b021790555060208201518160010190805190602001906101e89291906106ee565b5060408201518160020160006101000a81548173ffffffffffffffffffffffffffffffffffffffff021916908373ffffffffffffffffffffffffffffffffffffffff1602179055506060820151816003015550503373ffffffffffffffffffffffffffffffffffffffff167f2d6873fdbcd96c625e1fafa3267b0aab6e37f9be7d7a32baf9f6875c5e29844483834260405161028693929190610b44565b60405180910390a2600060028111156102c8577f4e487b7100000000000000000000000000000000000000000000000000000000600052602160045260246000fd5b826002811115610301577f4e487b7100000000000000000000000000000000000000000000000000000000600052602160045260246000fd5b14158061030f575060148151115b15610411576000655af3107a4000905047811115610362576040517f08c379a000000000000000000000000000000000000000000000000000000000815260040161035990610b82565b60405180910390fd5b60003373ffffffffffffffffffffffffffffffffffffffff168260405161038890610ac1565b60006040518083038185875af1925050503d80600081146103c5576040519150601f19603f3d011682016040523d82523d6000602084013e6103ca565b606091505b505090508061040e576040517f08c379a000000000000000000000000000000000000000000000000000000000815260040161040590610ba2565b60405180910390fd5b50505b5050565b6000818154811061042557600080fd5b90600052602060002090600402016000915090508060000160009054906101000a900460ff169080600101805461045b90610d47565b80601f016020809104026020016040519081016040528092919081815260200182805461048790610d47565b80156104d45780601f106104a9576101008083540402835291602001916104d4565b820191906000526020600020905b8154815290600101906020018083116104b757829003601f168201915b5050505050908060020160009054906101000a900473ffffffffffffffffffffffffffffffffffffffff16908060030154905084565b60008080549050905090565b60606000805480602002602001604051908101604052809291908181526020016000905b828210156106e557838290600052602060002090600402016040518060800160405290816000820160009054906101000a900460ff1660028111156105a8577f4e487b7100000000000000000000000000000000000000000000000000000000600052602160045260246000fd5b60028111156105e0577f4e487b7100000000000000000000000000000000000000000000000000000000600052602160045260246000fd5b81526020016001820180546105f490610d47565b80601f016020809104026020016040519081016040528092919081815260200182805461062090610d47565b801561066d5780601f106106425761010080835404028352916020019161066d565b820191906000526020600020905b81548152906001019060200180831161065057829003601f168201915b505050505081526020016002820160009054906101000a900473ffffffffffffffffffffffffffffffffffffffff1673ffffffffffffffffffffffffffffffffffffffff1673ffffffffffffffffffffffffffffffffffffffff1681526020016003820154815250508152602001906001019061053a565b50505050905090565b8280546106fa90610d47565b90600052602060002090601f01602090048101928261071c5760008555610763565b82601f1061073557805160ff1916838001178555610763565b82800160010185558215610763579182015b82811115610762578251825591602001919060010190610747565b5b5090506107709190610774565b5090565b5b8082111561078d576000816000905550600101610775565b5090565b60006107a461079f84610c02565b610bdd565b9050828152602081018484840111156107bc57600080fd5b6107c7848285610d05565b509392505050565b6000813590506107de81610efd565b92915050565b600082601f8301126107f557600080fd5b8135610805848260208601610791565b91505092915050565b60008135905061081d81610f0d565b92915050565b6000806040838503121561083657600080fd5b6000610844858286016107cf565b925050602083013567ffffffffffffffff81111561086157600080fd5b61086d858286016107e4565b9150509250929050565b60006020828403121561088957600080fd5b60006108978482850161080e565b91505092915050565b60006108ac8383610a40565b905092915050565b6108bd81610ca4565b82525050565b6108cc81610ca4565b82525050565b60006108dd82610c43565b6108e78185610c66565b9350836020820285016108f985610c33565b8060005b85811015610935578484038952815161091685826108a0565b945061092183610c59565b925060208a019950506001810190506108fd565b50829750879550505050505092915050565b61095081610cf3565b82525050565b61095f81610cf3565b82525050565b600061097082610c4e565b61097a8185610c82565b935061098a818560208601610d14565b61099381610e37565b840191505092915050565b60006109a982610c4e565b6109b38185610c93565b93506109c3818560208601610d14565b6109cc81610e37565b840191505092915050565b60006109e4602f83610c93565b91506109ef82610e48565b604082019050919050565b6000610a07602783610c93565b9150610a1282610e97565b604082019050919050565b6000610a2a600083610c77565b9150610a3582610ee6565b600082019050919050565b6000608083016000830151610a586000860182610947565b5060208301518482036020860152610a708282610965565b9150506040830151610a8560408601826108b4565b506060830151610a986060860182610aa3565b508091505092915050565b610aac81610ce9565b82525050565b610abb81610ce9565b82525050565b6000610acc82610a1d565b9150819050919050565b60006020820190508181036000830152610af081846108d2565b905092915050565b6000608082019050610b0d6000830187610956565b8181036020830152610b1f818661099e565b9050610b2e60408301856108c3565b610b3b6060830184610ab2565b95945050505050565b6000606082019050610b596000830186610956565b8181036020830152610b6b818561099e565b9050610b7a6040830184610ab2565b949350505050565b60006020820190508181036000830152610b9b816109d7565b9050919050565b60006020820190508181036000830152610bbb816109fa565b9050919050565b6000602082019050610bd76000830184610ab2565b92915050565b6000610be7610bf8565b9050610bf38282610d79565b919050565b6000604051905090565b600067ffffffffffffffff821115610c1d57610c1c610e08565b5b610c2682610e37565b9050602081019050919050565b6000819050602082019050919050565b600081519050919050565b600081519050919050565b6000602082019050919050565b600082825260208201905092915050565b600081905092915050565b600082825260208201905092915050565b600082825260208201905092915050565b6000610caf82610cc9565b9050919050565b6000819050610cc482610ee9565b919050565b600073ffffffffffffffffffffffffffffffffffffffff82169050919050565b6000819050919050565b6000610cfe82610cb6565b9050919050565b82818337600083830152505050565b60005b83811015610d32578082015181840152602081019050610d17565b83811115610d41576000848401525b50505050565b60006002820490506001821680610d5f57607f821691505b60208210811415610d7357610d72610dd9565b5b50919050565b610d8282610e37565b810181811067ffffffffffffffff82111715610da157610da0610e08565b5b80604052505050565b7f4e487b7100000000000000000000000000000000000000000000000000000000600052602160045260246000fd5b7f4e487b7100000000000000000000000000000000000000000000000000000000600052602260045260246000fd5b7f4e487b7100000000000000000000000000000000000000000000000000000000600052604160045260246000fd5b6000601f19601f8301169050919050565b7f436f6e74726163742066756e64732061726520696e73756666696369656e742060008201527f746f206772616e74207072697a652e0000000000000000000000000000000000602082015250565b7f4661696c656420746f207769746864726177206d6f6e65792066726f6d20636f60008201527f6e74726163742e00000000000000000000000000000000000000000000000000602082015250565b50565b60038110610efa57610ef9610daa565b5b50565b60038110610f0a57600080fd5b50565b610f1681610ce9565b8114610f2157600080fd5b5056fea264697066735822122094a581310e2aafe3c8d0e8af33268ae3208dba733b7ba244972c10509b7d367664736f6c63430008040033",
  "linkReferences": {},
  "deployedLinkReferences": {}
}